:100000000C9434000C9451000C9451000C94510049
:100010000C9451000C9451000C9451000C9451001C
:100020000C9451000C9451000C9451000C9451000C
:100030000C9451000C9451000C9451000C945100FC
:100040000C9451000C9451000C9451000C945100EC
:100050000C9451000C9451000C9451000C945100DC
:100060000C9451000C94510011241FBECFEFD8E026
:10007000DEBFCDBF11E0A0E0B1E0E0E4F9E002C0F6
:1000800005900D92A630B107D9F711E0A6E0B1E0D6
:1000900001C01D92AA31B107E1F70E9453000C94F0
:1000A0009E040C940000EF92FF920F931F93CF9346
:1000B000DF930E94E4000E9419048CE50E94C400B2
:1000C000C0E0D0E08FEF0E94A3008FEF0E94A3005A
:1000D000219680E4C030D807A9F7C0E9D1E00E949A
:1000E0003B047B018C018FEF9FEF0E944E01C70103
:1000F00060E070E00E94E70380E395E7FE0131973E
:10010000F1F70197D9F7EBCF289A88E893E120E936
:1001100031E0F9013197F1F70197D9F7289888E88C
:1001200093E120E931E0F9013197F1F70197D9F72F
:10013000289A88E893E120E931E0F9013197F1F755
:100140000197D9F70895299A0E9419010895EF920D
:10015000FF920F931F93CF93DF937B01C0E0D0E01A
:10016000082F10E007C08F2D0E94A3008E2D0E9443
:10017000A3002196C017D107B4F3DF91CF911F914F
:100180000F91FF90EF90089529980E94190108950A
:100190000F931F93182F062F85E10E94C400812F13
:1001A0000E94A3008FE70E94A30085E70E94C4007D
:1001B000802F0E94A3008FE70E94A3008CE50E947D
:1001C000C4001F910F9108950E940701209A289A58
:1001D000219A0E9484008DEF0E94C40082E10E9457
:1001E000A3008DEF0E94C40081EB0E94A30081EA6E
:1001F0000E94C40080E00E94A30082EA0E94C40022
:1002000080E00E94A3008FEA0E94C4000895229A11
:100210002A9A239A2498259A8CB580648CBD8CB533
:1002200080618CBD8CB588608CBD8CB584608CBDC4
:1002300008952A988EBD0DB407FEFDCF2A9A089521
:100240000F931F93CF93DF93EB0190E001962BE088
:1002500030E0829FA001839F500D929F500D11248A
:1002600001972AE130E0BC01629FC001639F900DBD
:10027000729F900D1124042F080F1CE2802F612F14
:100280000E94C8008AE1BE010E94A7001F5F1435CA
:10029000A9F7DF91CF911F910F9108950F931F93AD
:1002A0008C0180E0B8010E94200181E0B8010E9429
:1002B000200182E0B8010E9420011F910F91089552
:1002C000FF920F931F9390E001962BE030E0829F06
:1002D000A001839F500D929F500D112401972AE198
:1002E00030E0FC01E29FC001E39F900DF29F900D72
:1002F0001124042F080F603391F51CE2802F612F29
:100300000E94C8008AE160E070E00E94A7001F5FC1
:100310001433A1F7E2E1FE2EF00E802F612F0E9430
:10032000C80088E060E070E00E94A7008F2D612F78
:100330000E94C80088E060E070E00E94A7001F5F94
:100340001C3459F7802F612F0E94C8008AE160E0B9
:1003500070E00E94A7001F5F1435A1F734C261331B
:1003600079F41CE20E5E802F612F0E94C80088E0A5
:1003700060E070E00E94A7001F5F1435A1F723C260
:10038000623309F041C01CE2802F612F0E94C80037
:100390008AE160E070E00E94A7001F5F1433A1F7BC
:1003A000802F612F0E94C80088E060E070E00E940A
:1003B000A7001F5F1C33A1F7802F612F0E94C80088
:1003C0008AE160E070E00E94A7001F5F1434A1F78B
:1003D00072E1F72EF00E8F2D612F0E94C80088E089
:1003E00060E070E00E94A7001F5F1C34A1F7802F1F
:1003F000612F0E94C8008AE160E070E00E94A700BF
:100400001F5F1435A1F7DFC1633309F041C01CE25F
:10041000802F612F0E94C8008AE160E070E00E9496
:10042000A7001F5F1433A1F762E1F62EF00E8F2DA7
:10043000612F0E94C80088E060E070E00E94A70081
:100440001F5F1C33A1F7802F612F0E94C8008AE133
:1004500060E070E00E94A7001F5F1434A1F78F2DA9
:10046000612F0E94C80088E060E070E00E94A70051
:100470001F5F1C34A1F7802F612F0E94C8008AE102
:1004800060E070E00E94A7001F5F1435A1F79BC1D8
:10049000643391F51CE252E1F52EF00E8F2D612FA1
:1004A0000E94C80088E060E070E00E94A7001F5F23
:1004B0001C33A1F7802F612F0E94C8008AE160E001
:1004C00070E00E94A7001F5F1434A1F7802F612FF6
:1004D0000E94C80088E060E070E00E94A7008F2DB5
:1004E000612F0E94C80088E060E070E00E94A700D1
:1004F0001F5F143559F767C1653309F041C01CE22D
:10050000802F612F0E94C8008AE160E070E00E94A5
:10051000A7001F5F1433A1F742E1F42EF00E8F2DD8
:10052000612F0E94C80088E060E070E00E94A70090
:100530001F5F1C33A1F7802F612F0E94C8008AE142
:1005400060E070E00E94A7001F5F1434A1F7802FC5
:10055000612F0E94C80088E060E070E00E94A70060
:100560001F5F1C34A1F7802F612F0E94C8008AE111
:1005700060E070E00E94A7001F5F1435A1F723C15F
:10058000663309F04AC01CE2802F612F0E94C80028
:100590008AE160E070E00E94A7001F5F1433A1F7BA
:1005A00032E1F32EF00E802F612F0E94C80088E008
:1005B00060E070E00E94A7008F2D612F0E94C800AC
:1005C00088E060E070E00E94A7001F5F1C3359F7CD
:1005D000802F612F0E94C8008AE160E070E00E94D5
:1005E000A7001F5F1434A1F7802F612F0E94C8005D
:1005F00088E060E070E00E94A7001F5F1C34A1F754
:10060000802F612F0E94C8008AE160E070E00E94A4
:10061000A7001F5F1435A1F7D6C0673391F51CE220
:1006200022E1F22EF00E8F2D612F0E94C80088E08B
:1006300060E070E00E94A7001F5F1C33A1F7802FCD
:10064000612F0E94C80088E060E070E00E94A7006F
:100650008F2D612F0E94C80088E060E070E00E944A
:10066000A7001F5F1C3459F7802F612F0E94C8001C
:100670008AE160E070E00E94A7001F5F1435A1F7D7
:10068000A2C0683309F053C01CE2802F612F0E9482
:10069000C8008AE160E070E00E94A7001F5F143389
:1006A000A1F792E1F92EF00E802F612F0E94C80071
:1006B00088E060E070E00E94A7008F2D612F0E940B
:1006C000C80088E060E070E00E94A7001F5F1C3354
:1006D00059F7802F612F0E94C8008AE160E070E026
:1006E0000E94A7001F5F1434A1F7802F612F0E9482
:1006F000C80088E060E070E00E94A7008F2D612FA5
:100700000E94C80088E060E070E00E94A7001F5FC0
:100710001C3459F7802F612F0E94C8008AE160E0E5
:1007200070E00E94A7001F5F1435A1F74CC0693329
:1007300009F049C01CE2802F612F0E94C8008AE1A5
:1007400060E070E00E94A7001F5F1433A1F782E110
:10075000F82EF00E8F2D612F0E94C80088E060E017
:1007600070E00E94A7001F5F1C33A1F7802F612F4C
:100770000E94C8008AE160E070E00E94A7001F5F4D
:100780001434A1F7802F612F0E94C80088E060E038
:1007900070E00E94A7008F2D612F0E94C80088E0A2
:1007A00060E070E00E94A7001F5F1C3459F7802FA3
:1007B000612F0E94C8008AE160E070E00E94A700FB
:1007C0001F5F1435A1F71F910F91FF9008950F93AC
:1007D0001F93CF93DF93EC018B0183E0C83ED807D2
:1007E00018F5CE0164E670E00E948A04605D80E046
:1007F000A8010E946001CE0164E670E00E948A04B4
:100800006AE070E00E948A04605D81E0A8010E94B5
:100810006001CE016AE070E00E948A04682F605D8A
:1008200082E0A8010E946001DF91CF911F910F919A
:1008300008951092C50087E68093C400E2ECF0E0D2
:10084000808186608083E1ECF0E08081806180833C
:100850008081886080830895982F8091C00085FFF3
:10086000FCCF9093C60008958091C00087FFFCCF15
:100870008091C6000895CF93DF93809100010E947C
:100880002C04809101010E942C04809102010E949D
:100890002C04809103010E942C04809104010E9489
:1008A0002C04C6E0D1E00E943404899381E0CA316F
:1008B000D807C9F72091090130E040E050E0522FFD
:1008C00044273327222780910A0190E0A0E0B0E07E
:1008D000DC0199278827282B392B4A2B5B2B809109
:1008E0000C0190E0A0E0B0E0282B392B4A2B5B2BC9
:1008F00080910B0190E0A0E0B0E0BA2FA92F982FD3
:100900008827282B392B4A2B5B2BB901CA01DF9191
:10091000CF910895AA1BBB1B51E107C0AA1FBB1FA3
:10092000A617B70710F0A61BB70B881F991F5A957B
:10093000A9F780959095BC01CD010895F894FFCF5B
:0609400011020B01E100B1
:00000001FF
